{
  "contractName": "Evoucher",
  "abi": [
    {
      "inputs": [],
      "payable": false,
      "stateMutability": "nonpayable",
      "type": "constructor"
    },
    {
      "constant": true,
      "inputs": [],
      "name": "totalEvouchers",
      "outputs": [
        {
          "internalType": "uint256",
          "name": "",
          "type": "uint256"
        }
      ],
      "payable": false,
      "stateMutability": "view",
      "type": "function"
    },
    {
      "constant": true,
      "inputs": [
        {
          "internalType": "string",
          "name": "_token",
          "type": "string"
        }
      ],
      "name": "getVoucher",
      "outputs": [
        {
          "internalType": "string",
          "name": "token",
          "type": "string"
        },
        {
          "internalType": "string",
          "name": "price",
          "type": "string"
        },
        {
          "internalType": "string",
          "name": "issue_from",
          "type": "string"
        },
        {
          "internalType": "string",
          "name": "issue_until",
          "type": "string"
        },
        {
          "internalType": "string",
          "name": "redeem_date",
          "type": "string"
        },
        {
          "internalType": "bool",
          "name": "isDeleted",
          "type": "bool"
        }
      ],
      "payable": false,
      "stateMutability": "view",
      "type": "function"
    },
    {
      "constant": false,
      "inputs": [
        {
          "internalType": "string",
          "name": "_token",
          "type": "string"
        },
        {
          "internalType": "string",
          "name": "_price",
          "type": "string"
        },
        {
          "internalType": "string",
          "name": "_issue_from",
          "type": "string"
        },
        {
          "internalType": "string",
          "name": "_issue_until",
          "type": "string"
        },
        {
          "internalType": "string",
          "name": "_redeem_date",
          "type": "string"
        }
      ],
      "name": "insert",
      "outputs": [
        {
          "internalType": "bool",
          "name": "success",
          "type": "bool"
        }
      ],
      "payable": false,
      "stateMutability": "nonpayable",
      "type": "function"
    },
    {
      "constant": false,
      "inputs": [
        {
          "internalType": "string",
          "name": "_token",
          "type": "string"
        },
        {
          "internalType": "string",
          "name": "_price",
          "type": "string"
        },
        {
          "internalType": "string",
          "name": "_issue_from",
          "type": "string"
        },
        {
          "internalType": "string",
          "name": "_issue_until",
          "type": "string"
        },
        {
          "internalType": "string",
          "name": "_redeem_date",
          "type": "string"
        }
      ],
      "name": "update",
      "outputs": [
        {
          "internalType": "bool",
          "name": "success",
          "type": "bool"
        }
      ],
      "payable": false,
      "stateMutability": "nonpayable",
      "type": "function"
    },
    {
      "constant": false,
      "inputs": [
        {
          "internalType": "string",
          "name": "_token",
          "type": "string"
        }
      ],
      "name": "deleteVoucher",
      "outputs": [
        {
          "internalType": "bool",
          "name": "success",
          "type": "bool"
        }
      ],
      "payable": false,
      "stateMutability": "nonpayable",
      "type": "function"
    }
  ],
  "bytecode": "0x608060405234801561001057600080fd5b50600060018190555061174b806100286000396000f3fe608060405234801561001057600080fd5b50600436106100575760003560e01c80632dca76c11461005c5780635fe7ed5e1461038b578063735e8eb5146103a9578063a2cc69811461047c578063d23fbf9c1461076b575b600080fd5b610371600480360360a081101561007257600080fd5b810190808035906020019064010000000081111561008f57600080fd5b8201836020820111156100a157600080fd5b803590602001918460018302840111640100000000831117156100c357600080fd5b91908080601f016020809104026020016040519081016040528093929190818152602001838380828437600081840152601f19601f8201169050808301925050505050505091929192908035906020019064010000000081111561012657600080fd5b82018360208201111561013857600080fd5b8035906020019184600183028401116401000000008311171561015a57600080fd5b91908080601f016020809104026020016040519081016040528093929190818152602001838380828437600081840152601f19601f820116905080830192505050505050509192919290803590602001906401000000008111156101bd57600080fd5b8201836020820111156101cf57600080fd5b803590602001918460018302840111640100000000831117156101f157600080fd5b91908080601f016020809104026020016040519081016040528093929190818152602001838380828437600081840152601f19601f8201169050808301925050505050505091929192908035906020019064010000000081111561025457600080fd5b82018360208201111561026657600080fd5b8035906020019184600183028401116401000000008311171561028857600080fd5b91908080601f016020809104026020016040519081016040528093929190818152602001838380828437600081840152601f19601f820116905080830192505050505050509192919290803590602001906401000000008111156102eb57600080fd5b8201836020820111156102fd57600080fd5b8035906020019184600183028401116401000000008311171561031f57600080fd5b91908080601f016020809104026020016040519081016040528093929190818152602001838380828437600081840152601f19601f820116905080830192505050505050509192919290505050610a9a565b604051808215151515815260200191505060405180910390f35b610393610dc9565b6040518082815260200191505060405180910390f35b610462600480360360208110156103bf57600080fd5b81019080803590602001906401000000008111156103dc57600080fd5b8201836020820111156103ee57600080fd5b8035906020019184600183028401116401000000008311171561041057600080fd5b91908080601f016020809104026020016040519081016040528093929190818152602001838380828437600081840152601f19601f820116905080830192505050505050509192919290505050610dcf565b604051808215151515815260200191505060405180910390f35b6105356004803603602081101561049257600080fd5b81019080803590602001906401000000008111156104af57600080fd5b8201836020820111156104c157600080fd5b803590602001918460018302840111640100000000831117156104e357600080fd5b91908080601f016020809104026020016040519081016040528093929190818152602001838380828437600081840152601f19601f820116905080830192505050505050509192919290505050610e5f565b6040518080602001806020018060200180602001806020018715151515815260200186810386528c818151815260200191508051906020019080838360005b8381101561058f578082015181840152602081019050610574565b50505050905090810190601f1680156105bc5780820380516001836020036101000a031916815260200191505b5086810385528b818151815260200191508051906020019080838360005b838110156105f55780820151818401526020810190506105da565b50505050905090810190601f1680156106225780820380516001836020036101000a031916815260200191505b5086810384528a818151815260200191508051906020019080838360005b8381101561065b578082015181840152602081019050610640565b50505050905090810190601f1680156106885780820380516001836020036101000a031916815260200191505b50868103835289818151815260200191508051906020019080838360005b838110156106c15780820151818401526020810190506106a6565b50505050905090810190601f1680156106ee5780820380516001836020036101000a031916815260200191505b50868103825288818151815260200191508051906020019080838360005b8381101561072757808201518184015260208101905061070c565b50505050905090810190601f1680156107545780820380516001836020036101000a031916815260200191505b509b50505050505050505050505060405180910390f35b610a80600480360360a081101561078157600080fd5b810190808035906020019064010000000081111561079e57600080fd5b8201836020820111156107b057600080fd5b803590602001918460018302840111640100000000831117156107d257600080fd5b91908080601f016020809104026020016040519081016040528093929190818152602001838380828437600081840152601f19601f8201169050808301925050505050505091929192908035906020019064010000000081111561083557600080fd5b82018360208201111561084757600080fd5b8035906020019184600183028401116401000000008311171561086957600080fd5b91908080601f016020809104026020016040519081016040528093929190818152602001838380828437600081840152601f19601f820116905080830192505050505050509192919290803590602001906401000000008111156108cc57600080fd5b8201836020820111156108de57600080fd5b8035906020019184600183028401116401000000008311171561090057600080fd5b91908080601f016020809104026020016040519081016040528093929190818152602001838380828437600081840152601f19601f8201169050808301925050505050505091929192908035906020019064010000000081111561096357600080fd5b82018360208201111561097557600080fd5b8035906020019184600183028401116401000000008311171561099757600080fd5b91908080601f016020809104026020016040519081016040528093929190818152602001838380828437600081840152601f19601f820116905080830192505050505050509192919290803590602001906401000000008111156109fa57600080fd5b820183602082011115610a0c57600080fd5b80359060200191846001830284011164010000000083111715610a2e57600080fd5b91908080601f016020809104026020016040519081016040528093929190818152602001838380828437600081840152601f19601f82011690508083019250505050505050919291929050505061141f565b604051808215151515815260200191505060405180910390f35b6000610ab5866040518060200160405280600081525061159e565b15610b3c57856000876040518082805190602001908083835b60208310610af15780518252602082019150602081019050602083039250610ace565b6001836020036101000a03801982511681845116808217855250505050505090500191505090815260200160405180910390206000019080519060200190610b3a9291906115b9565b505b610b55856040518060200160405280600081525061159e565b15610bdc57846000876040518082805190602001908083835b60208310610b915780518252602082019150602081019050602083039250610b6e565b6001836020036101000a03801982511681845116808217855250505050505090500191505090815260200160405180910390206001019080519060200190610bda9291906115b9565b505b610bf5846040518060200160405280600081525061159e565b15610c7c57836000876040518082805190602001908083835b60208310610c315780518252602082019150602081019050602083039250610c0e565b6001836020036101000a03801982511681845116808217855250505050505090500191505090815260200160405180910390206002019080519060200190610c7a9291906115b9565b505b610c95836040518060200160405280600081525061159e565b15610d1c57826000876040518082805190602001908083835b60208310610cd15780518252602082019150602081019050602083039250610cae565b6001836020036101000a03801982511681845116808217855250505050505090500191505090815260200160405180910390206003019080519060200190610d1a9291906115b9565b505b610d35826040518060200160405280600081525061159e565b15610dbc57816000876040518082805190602001908083835b60208310610d715780518252602082019150602081019050602083039250610d4e565b6001836020036101000a03801982511681845116808217855250505050505090500191505090815260200160405180910390206004019080519060200190610dba9291906115b9565b505b6001905095945050505050565b60015481565b600060016000836040518082805190602001908083835b60208310610e095780518252602082019150602081019050602083039250610de6565b6001836020036101000a038019825116818451168082178552505050505050905001915050908152602001604051809103902060050160006101000a81548160ff02191690831515021790555060019050919050565b6060806060806060600080876040518082805190602001908083835b60208310610e9e5780518252602082019150602081019050602083039250610e7b565b6001836020036101000a03801982511681845116808217855250505050505090500191505090815260200160405180910390206000016000886040518082805190602001908083835b60208310610f0a5780518252602082019150602081019050602083039250610ee7565b6001836020036101000a03801982511681845116808217855250505050505090500191505090815260200160405180910390206001016000896040518082805190602001908083835b60208310610f765780518252602082019150602081019050602083039250610f53565b6001836020036101000a038019825116818451168082178552505050505050905001915050908152602001604051809103902060020160008a6040518082805190602001908083835b60208310610fe25780518252602082019150602081019050602083039250610fbf565b6001836020036101000a038019825116818451168082178552505050505050905001915050908152602001604051809103902060030160008b6040518082805190602001908083835b6020831061104e578051825260208201915060208101905060208303925061102b565b6001836020036101000a038019825116818451168082178552505050505050905001915050908152602001604051809103902060040160008c6040518082805190602001908083835b602083106110ba5780518252602082019150602081019050602083039250611097565b6001836020036101000a038019825116818451168082178552505050505050905001915050908152602001604051809103902060050160009054906101000a900460ff16858054600181600116156101000203166002900480601f0160208091040260200160405190810160405280929190818152602001828054600181600116156101000203166002900480156111935780601f1061116857610100808354040283529160200191611193565b820191906000526020600020905b81548152906001019060200180831161117657829003601f168201915b50505050509550848054600181600116156101000203166002900480601f01602080910402602001604051908101604052809291908181526020018280546001816001161561010002031660029004801561122f5780601f106112045761010080835404028352916020019161122f565b820191906000526020600020905b81548152906001019060200180831161121257829003601f168201915b50505050509450838054600181600116156101000203166002900480601f0160208091040260200160405190810160405280929190818152602001828054600181600116156101000203166002900480156112cb5780601f106112a0576101008083540402835291602001916112cb565b820191906000526020600020905b8154815290600101906020018083116112ae57829003601f168201915b50505050509350828054600181600116156101000203166002900480601f0160208091040260200160405190810160405280929190818152602001828054600181600116156101000203166002900480156113675780601f1061133c57610100808354040283529160200191611367565b820191906000526020600020905b81548152906001019060200180831161134a57829003601f168201915b50505050509250818054600181600116156101000203166002900480601f0160208091040260200160405190810160405280929190818152602001828054600181600116156101000203166002900480156114035780601f106113d857610100808354040283529160200191611403565b820191906000526020600020905b8154815290600101906020018083116113e657829003601f168201915b5050505050915095509550955095509550955091939550919395565b6000806000905061142e611639565b6040518060c001604052808981526020018881526020018781526020018681526020018581526020018315158152509050806000896040518082805190602001908083835b602083106114965780518252602082019150602081019050602083039250611473565b6001836020036101000a038019825116818451168082178552505050505050905001915050908152602001604051809103902060008201518160000190805190602001906114e5929190611671565b506020820151816001019080519060200190611502929190611671565b50604082015181600201908051906020019061151f929190611671565b50606082015181600301908051906020019061153c929190611671565b506080820151816004019080519060200190611559929190611671565b5060a08201518160050160006101000a81548160ff02191690831515021790555090505060016000815480929190600101919050555060019250505095945050505050565b60008180519060200120838051906020012014905092915050565b828054600181600116156101000203166002900490600052602060002090601f016020900481019282601f106115fa57805160ff1916838001178555611628565b82800160010185558215611628579182015b8281111561162757825182559160200191906001019061160c565b5b50905061163591906116f1565b5090565b6040518060c0016040528060608152602001606081526020016060815260200160608152602001606081526020016000151581525090565b828054600181600116156101000203166002900490600052602060002090601f016020900481019282601f106116b257805160ff19168380011785556116e0565b828001600101855582156116e0579182015b828111156116df5782518255916020019190600101906116c4565b5b5090506116ed91906116f1565b5090565b61171391905b8082111561170f5760008160009055506001016116f7565b5090565b9056fea265627a7a723158203bed09b8723d8a0bf7146dc98a9be93cd206964a53f9ba00997634a2c6cfd8c564736f6c63430005100032",
  "source": "pragma solidity >=0.4.21 <0.7.0;\r\n\r\ncontract Evoucher {\r\n    struct evoucher {\r\n        string token;\r\n        string price;\r\n        string issue_from;\r\n        string issue_until;\r\n        string redeem_date;\r\n        bool isDeleted;\r\n    }\r\n    mapping(string => evoucher) evoucherList;\r\n    uint256 public totalEvouchers;\r\n    constructor() public {\r\n        totalEvouchers = 0;\r\n    }\r\n    function getVoucher(string memory _token) public view returns (\r\n                    string memory token,\r\n                    string memory price,\r\n                    string memory issue_from,\r\n                    string memory issue_until,\r\n                    string memory redeem_date,\r\n                    bool isDeleted){\r\n        return (evoucherList[_token].token,\r\n                evoucherList[_token].price,\r\n                evoucherList[_token].issue_from,\r\n                evoucherList[_token].issue_until,\r\n                evoucherList[_token].redeem_date,\r\n                evoucherList[_token].isDeleted);\r\n    }\r\n    function insert(string memory _token,\r\n                    string memory _price,\r\n                    string memory _issue_from,\r\n                    string memory _issue_until,\r\n                    string memory _redeem_date)\r\n                    public returns (bool success) {\r\n        bool _isDeleted = false;\r\n        evoucher memory newVoucher = evoucher(_token, _price, _issue_from, _issue_until, _redeem_date, _isDeleted);\r\n        evoucherList[_token] = newVoucher;\r\n        totalEvouchers++;\r\n        return true;\r\n    }\r\n    function update(string memory _token,\r\n                    string memory _price,\r\n                    string memory _issue_from,\r\n                    string memory _issue_until,\r\n                    string memory _redeem_date)\r\n                    public returns (bool success) {\r\n        if(compareStrings(_token, \"\")) {\r\n            evoucherList[_token].token = _token;\r\n        }\r\n        if(compareStrings(_price, \"\")) {\r\n            evoucherList[_token].price = _price;\r\n        }\r\n        if(compareStrings(_issue_from, \"\")) {\r\n            evoucherList[_token].issue_from = _issue_from;\r\n        }\r\n        if(compareStrings(_issue_until, \"\")) {\r\n            evoucherList[_token].issue_until = _issue_until;\r\n        }\r\n        if(compareStrings(_redeem_date, \"\")) {\r\n            evoucherList[_token].redeem_date = _redeem_date;\r\n        }\r\n        return true;\r\n    }\r\n    function deleteVoucher(string memory _token) public returns (bool success) {\r\n        evoucherList[_token].isDeleted = true;\r\n        return true;\r\n    }\r\n    function compareStrings(string memory a, string memory b)  internal pure returns (bool){\r\n       return keccak256(bytes(a)) == keccak256(bytes(b));\r\n   }\r\n}",
  "sourcePath": "F:\\SoftwareEngineeringCourses\\N4HK2_DACN\\Project\\Evoucher Truffle\\contracts\\Evoucher.sol",
  "compiler": {
    "name": "solc",
    "version": "0.5.16+commit.9c3226ce.Emscripten.clang"
  },
  "schemaVersion": "3.0.23",
  "updatedAt": "2020-07-08T06:32:51.966Z",
  "networkType": "ethereum",
  "devdoc": {
    "methods": {}
  },
  "userdoc": {
    "methods": {}
  }
}